:1000000000220020552200004F7B0000412200000A
:1000100041220000412200004122000000000000B7
:10002000000000000000000000000000512400005B
:100030004122000000000000B12300004122000026
:100040003127000031270000312700003127000050
:100050003127000031270000312700003127000040
:100060003127000031270000312700003127000030
:100070003127000031270000312700003127000020
:100080003127000031270000312700003127000010
:100090003127000031270000312700003127000000
:1000A00031270000312700003127000031270000F0
:1000B00031270000312700003127000031270000E0
:1000C00031270000312700003127000031270000D0
:1000D00031270000312700003127000031270000C0
:1000E00031270000312700003127000031270000B0
:1000F00031270000312700003127000031270000A0
:1001000053B94AB9002908BF00281CBF4FF0FF317E
:100110004FF0FF3000F00CB8ADF1080C6DE904CEE3
:1001200000F008F8DDF804E0DDE9022304B07047D0
:10013000704700BF2DE9F04786468C460846089E6A
:10014000154674461946002B40F0C2808542B2FA2B
:1001500082F245D94AB1C2F1200300FA02FC2EFA1C
:1001600003F3954043EA0C0C94404FEA154EA8B2B5
:10017000BCFBFEF8230C0EFB18CC08FB00F943EA8D
:100180000C43994528D9EB1808F1FF3704D299455B
:1001900002D9A8F102072B44A3EB0903A4B2B3FBD5
:1001A000FEFC0EFB1C330CFB00F044EA0344A042AF
:1001B00014D92C190CF1FF3304D2A04202D9ACF1AE
:1001C00002032C44241A43EA07401EB1D440002302
:1001D00034607360BDE8F0874746DDE76346F1E7CA
:1001E00092BB431B01214FEA154EAFB2B3FBFEFC9D
:1001F000200C0EFB1C330CFB07F840EA0343984528
:1002000062D9EB180CF1FF3004D2984502D9ACF159
:1002100002002B44A3EB0803A4B2B3FBFEFC0EFBCD
:100220001C330CFB07F744EA0344A7424ED92C19B0
:100230000CF1FF3304D2A74202D9ACF102032C44E3
:10024000E41B43EA0040C0E7C2F1200320FA03F1B7
:10025000954090402EFA03F303434FEA154EAFB298
:10026000B1FBFEFC0EFB1C10190C0CFB07F841EA5D
:100270000041884504FA02F422D969180CF1FF30D4
:1002800004D2884502D9ACF102002944A1EB08014F
:100290009BB2B1FBFEFC0EFB1C110CFB07F743EA03
:1002A00001439F420ED9EB180CF1FF3104D29F425B
:1002B00002D9ACF102012B44DB1B41EA004192E779
:1002C0006046E3E76146F7E76046A3E76346B7E7C2
:1002D000834206D916B9002108467BE7C6E900E04B
:1002E000F9E7B3FA83F78FB9834201D3724508D88F
:1002F000BEEB020460EB030301209C461EB9002103
:1003000068E73846FAE7C6E9004CF8E7C7F1200C81
:10031000BB4022FA0CF41C432EFA0CF120FA0CF329
:10032000B84001434FEA14490EFA07F5B3FBF9F858
:100330001FFA84FE09FB18300B0C08FB0EFA43EA87
:1003400000439A4502FA07F240D9E31808F1FF305A
:1003500004D29A4502D9A8F102002344A3EB0A0370
:1003600089B2B3FBF9F809FB183308FB0EFE41EA2A
:1003700003418E452CD9611808F1FF3304D28E4514
:1003800002D9A8F10203214443EA0040A0FB0298ED
:10039000A1EB0E014145CE46434602D306D14D4561
:1003A00004D2B9EB020E68EB04030138002EA6D08C
:1003B000B5EB0E0261EB030101FA0CFC22FA07F324
:1003C0004CEA0303F940C6E9003198E74046C5E727
:1003D0004346D9E7034613F8012B002AFBD1181A2C
:1003E00001387047000000002DE9F0472DED028B29
:1003F0009FED498B4A4E84B004464FF02003EFF343
:10040000118783F31288BFF36F8FD4F8C8508DB96A
:10041000022104F1E00007F05FFF002843D1002330
:100420008DED008B029304F1D00239463D4805F072
:10043000D9FAE2E7D4F8CC202B68C4F8C83095424A
:1004400008BFC4F8CC30D4F8E03043F00203C4F85D
:10045000E030EB6823F0040343F00103EB606B68CA
:1004600087F31188BFF36F8F284698474FF020031A
:10047000EFF3118983F31288BFF36F8FEB6899074D
:1004800023F0010219D4EA60D4F8E03023F002032B
:10049000C4F8E03089F31188BFF36F8FDB05ACD46B
:1004A00005F0FEF9A9E704F1D8050022012128464C
:1004B00008F057F80028F8D1B1E7306823F00303BB
:1004C000EB600028E0D00027D0F80080BA46002872
:1004D000DAD04268954201460BD1016897B972683B
:1004E0003160824200D1716040F808AB04F094FEA4
:1004F0003946B8F1000F0BD0D8F8002040460F461F
:100500009046E4E739607268824208BF7760EBE7A3
:100510004246F3E7AFF30080FFFFFFFFFFFFFFFF5F
:10052000A80B00207310002013B5084C204608F0DB
:10053000E1F8074B074A186807498368009201945D
:100540005C68064A064BA04702B010BD08000020B8
:10055000B8090020B17E0000F0900000E09000009B
:10056000D890000013B5124A1248032107F089FA07
:10057000114B1248186007F06FFE10B9104806F0D2
:1005800032FEFFF7D1FF0F4A0A480F4C032107F054
:1005900078FA01AA6946204608F0AFF8009B0BB133
:1005A000FFF7C2FF00214FF4A47005F0FBF9F0E75C
:1005B000CC930000C88D0000B8090020308C0000EA
:1005C000D6930000F3930000080000202DE9F04FBF
:1005D00091B08407009302F004030293C2F3C203B4
:1005E00003F10103DDF86890039205460E4605937A
:1005F00040F0BA81041D30B1072909D86FF01B0003
:1006000011B0BDE8F08F01F00706341DC6F10806F1
:10061000009B4FF00008591E4FF0040A4FF0FF33C3
:100620000193CDF810804746C34653460DB100985C
:1006300020600598002800F3E8809848009A8242DC
:1006400003D397488242C0F0E080039AA4EB050EE2
:1006500092074FEA9E0000F103810F2F00F2B18054
:10066000002D00F0058107F140020DEB020C019A0C
:100670000CF8200C0CF8102C049801300490E7E0E2
:100680007A285DD84B280ED8472859D829282DD844
:10069000252852D054D820287AD02338D0F1000B06
:1006A0004BEB000B74E04C382E2849D8DFE800F003
:1006B0007048484848484848484848484B4848488F
:1006C000484848484859484B4B595959704B6D4810
:1006D0007048184B184848827F4B48484B487F0069
:1006E00000204FF0000B4FF0040A38E02A38C0B267
:1006F000012202FA00F010EA0E0F49D110F0625CFC
:100700002FD110EA020B43D06046013C5444B4FBA5
:10071000FAF40AFB04F4002D61D0A3EB050CA44409
:100720006645FFF46BAF002868D1042B47D159F818
:10073000043B2360043404232AE0019A013A019225
:100740004FF0000B24E011F8010C6C2834D111F8A3
:10075000023C00206C2B8346C5D14FF0080A53465B
:10076000D3E709F1070929F007090734F9E802ABD3
:1007700024F0070435B106982044B0423FF63EAF5E
:10078000C4E900AB08344FF0000B4FF0080A5346A1
:1007900011F8010F002878D0BBF1000F7FF470AF83
:1007A0002528F5D1019B013301934FF0010B4FF048
:1007B000040AECE7584694E700208346A5E7082B97
:1007C00002D06FF015001BE709F1070929F00709AE
:1007D000B9EC027B84ED007B08340823D8E768B9C4
:1007E000042B02D109F10409A4E7082BE9D109F18E
:1007F000070929F0070909F10809EDE7059801380B
:10080000059059F8040B009010E7039A900720D543
:10081000A4EB050E4FEA9E004FF0010CBEF5007FE1
:10082000CFD20F2FCDD8F5B107F140020DEB020E5C
:10083000C0B2019A0EF8200C0EF8102CBCF1000F7B
:100840003FF41AAF60F07F000EF8200C08F10108A9
:100850000137C5F10802043406924FF6DA7E97E7B5
:100860004FF0000CDAE7BCF1000F01D00136EFE7E2
:10087000029A0236002AEBD10098CDE90631FFF743
:10088000A9FDDDE906310644E2E7631BB3F5806F9D
:1008900097D23DB9A6F10804E018B1E6708B0000CC
:1008A0000C9E0000029A28609B082B709DF8103067
:1008B000C2B1EB7085F80280B8F1000F05D008A82E
:1008C0000022C5F1010C97420ED1C5F101030DF1D3
:1008D00020094FF0000A01930DF1300B574512D15A
:1008E000601B8DE66B70E5E710F8013B190608D533
:1008F00004EB0C0E764503F07F03FFF47FAE04F8A3
:10090000013B0132DFE7B8F1000F03D099F9002075
:10091000002A17DB029BD3B11AF80B2004F8012B35
:100920000022019B981820448642FFF467AE99F894
:10093000000004F8010B00990392204608F016F815
:10094000039A14440AF1010A09F10109C6E799F86A
:10095000002055F822300093029B45F82230009881
:10096000FFF738FD421CDCE76FF00D0048E600BFE2
:100970002DE9F04F95B000AF90F802B0BB61BB6FAE
:100980007A62C3F3C00304463B618A4641B94578A5
:1009900000780BEB80002044554517D8A0EB040AE3
:1009A000E3787B61BBF1000F02D0BB6FD80716D490
:1009B0007B6953BB7B6A1BB1BA6951462046984795
:1009C000554628465437BD46BDE8F08F461C304694
:1009D000FFF700FD013030440AF1010ADCE723781B
:1009E0003B629B00FB603B6A6268FA6104EB83092F
:1009F0007B6A002B40F0FE805546C84609EB0B0A87
:100A00000026D04551D1D94413E0BB6F9907D1D509
:100A100023783B6299469B00FB606368FB617B6ABD
:100A200004EB8909002B7AD15546BBF1000F4FD159
:100A30005E46BB6F13F0050F7B6909EB430ABB6F82
:100A400003F002030CBF4FF0020B4FF0010B7B626F
:100A5000D145B6D019F8021B19F8013C54F823808F
:100A6000AA4B984502D3AA4B984538D33B69002B33
:100A700042D0F86906F090FB00283DD0E8468AB0E5
:100A80006A46A44B5361FB69C2E906314FF4007317
:100A90001384A14B42F8103FA04800234FF4125199
:100AA00000F006FD023DC546D2E718F8013B54F8B8
:100AB0002300FFF78FFCFB6F01303BB1D7F880308C
:100AC0009E423EBFFB6F23F816000136054498E7AF
:100AD000BB6F13F004061CBF7E6AD944A9E73B69CB
:100AE00023B1F86906F058FB0028C7D1BB6FDA07BD
:100AF00005D4A5EB0B05ABE77B6A002BA8D04046DD
:100B0000FFF768FCFB6F43B1D7F880309E423FBFD0
:100B1000FA6F431C22F816300136054498E7BBF102
:100B2000000F6DD0BB6F13F004066CD0D8460026C2
:100B300007F140005A46494607F018FF7B695B0001
:100B40007B607B69D94409EB4303BB60BB6F03F057
:100B500002033B60BB684B4557D1B96F6378B86FF0
:100B6000890706EB030254BF4FEA58010021C5076D
:100B7000D2B200F19A8010F0040F14BF404600205A
:100B8000FB616270A070E170BA69F9687B6A204607
:100B90009847051EFFF615AF3B6A2370FB6963702B
:100BA0007B69E3704146BA697B6A84F802B007F159
:100BB00040009847B0F10008C0F2A480FB68BA6911
:100BC000AAEB0B01C91A7B684846C91A7B6A984789
:100BD0000028C0F29980A84408EB00054FF0000BF4
:100BE00007F1300AB34562D30021BA697B6A08462F
:100BF0009847E6E65E464FF0000807F1300099E7B7
:100C00005E46D8469AE7B04698E719F8021B3F4B74
:100C100019F8015C54F82500984202D33C4B9842E5
:100C20001DD33B6923B1F86906F0B6FA002891D1CB
:100C30003B68FBB908F1280307F1280208F101001D
:100C400003EB020C07F1500353FA80F008F102089D
:100C50000CF8101C5FFA88F800F8105C7AE73B6922
:100C60002BB1F86906F098FA00287FF473AFBB6FD8
:100C7000DB0709D506F1280307F12802711C9E182D
:100C800006F8205CCEB265E7BB6F58077FF562AF10
:100C900008F1280307F1280208F1010103EB02081B
:100CA00008F8105C5FFA81F854E7002068E71BF849
:100CB0000A3087F82F3054F82390FB6FFBB133F8DC
:100CC0001B80BA697B6A012107F12F009847002831
:100CD0001ADB0544B8F1000F06D14846FFF77AFB4E
:100CE00000F101081FFA88F8BA697B6A4146484654
:100CF0009847002808DB05440BF1010B72E7D7F891
:100D00007C80DEE745465CE605465AE6708B0000CF
:100D10000C9E00001A94000004000001D08D000019
:100D2000014B1860704700BF1800002080B50546D1
:100D30000E461746984604F04FFE034607F00EFF96
:100D4000DFF81890044649F80030424630463946EC
:100D5000A84754F8090001F0FDFA00BF08000000A0
:100D60002DE9F047058B04462807904611D4022947
:100D700005F0070540F0CD80204606F0AAFA78B1CC
:100D80000138218B042811D8DFE800F0C3106D85ED
:100D9000950001290CBF45F0100545F0200525837D
:100DA00088F31188BFF36F8FBDE8F08701F0070A61
:100DB000AA4500F0A6800027B9463E46A368002B4E
:100DC00000F0BD8041F00801218388F31188BFF352
:100DD0006F8FA168002900F0BB800D68002900F02A
:100DE000B780D1F80480334652462046C047002DD4
:100DF00076D02B6829461D46F0E701F007035A1FFD
:100E0000012A1BD8002221F00701062B276889B28E
:100E1000C4E9002209D13B4603E0628B01326283C0
:100E20001B68002BF9D141F002012183204606F016
:100E300050FA00287BD041F0200177E0042B0AD142
:100E400021F0070189B22183204606F042FA10B151
:100E500041F020012183218B01F0070AAA4550D0DF
:100E60000027B946AAE7236921F0070141F00601EE
:100E7000062DD3F8009021832DD1B9F1000F40D079
:100E800041F00801218388F31188BFF36F8F3A493D
:100E90002046C84729E021F00701236941F00401F9
:100EA00089B2042DD3F804902183E6D000273E4672
:100EB0004FF0040A82E721F00701236941F00501A0
:100EC00089B2052DD3F808902183D6D000273E465D
:100ED0004FF0050A72E700273E464FF0060A6DE71D
:100EE0002B4687E7B9F1000FD1D14FF02003EFF384
:100EF000118883F31288BFF36F8F238B23F00803CD
:100F00002383258BEA062ED525F01003238305F0D5
:100F100007056669218B002EBFF66FAF0023276897
:100F2000C4E9003321F0070141F001012183218B45
:100F300001F0070AAA454FF000097FF43FAF002FE8
:100F40009BD041F00801218388F31188BFF36F8F94
:100F5000002FC7D03D68394633465246204606F03A
:100F6000E4F92F46F4E7AB067FF51AAF25F020032E
:100F7000238305F00705FFE6577300002DE9F047CE
:100F8000DFF85880044607464FF0010914B9384687
:100F9000BDE8F08794FAA4F5B5FA85F509FA05F3EA
:100FA0002E0108EB05156FEA030A24EA03042B7BE4
:100FB000002BEBD058F806301B694BB9464404228D
:100FC00073682846196807EA0A0700F05DFADDE74A
:100FD000284698470028D9D1F0E700BF288E0000A6
:100FE00030B51049104889B0002207F0F9FA0F4DCA
:100FF0000F4900220023CDE9062300240E23CDE96A
:101000000334CDE901440B4B00944FF44072284661
:1010100003F0D4FF0849284607F033F9204609B009
:1010200030BD00BF3D100000C8060020F8010020C0
:10103000801000202D130000CE940000014804F021
:10104000EBB800BFE00100202DE9F04780461F48C3
:101050000F4606F090FC0646002830D000252846B2
:10106000BDE8F087237B73B12368DB680BB12046B2
:10107000984723681B69D3B963680422196820461E
:1010800000F002FA013610344C45EBD3B8F1000FF2
:10109000E5D0002DE2D02846FFF770FF0546002F6F
:1010A000F7D000214FF4A47004F07CFCF1E7204657
:1010B00098470028E0D00AFA06F31D43E2E7044C03
:1010C000DFF8109005464FF0010ADDE7CC0900205B
:1010D000288E0000388E0000014B53F82000704726
:1010E0001891000008B5034608462BB1044A136066
:1010F00000F07EFC002008BD6FF01500FBE700BF8C
:101100001C00002010B5044C237813B9034804F0E8
:1011100083F80123237010BDC40B0020E0010020E0
:1011200010B50446084806F026FC5CB1BFF35B8F9F
:10113000064B53E8001F013943E80012002AF8D19A
:10114000BFF35B8F10BD00BFC4090020C809002099
:101150000020064BBFF35B8F014653E8000F43E8C6
:101160000012002AF9D1BFF35B8F7047C409002039
:1011700070B5FFF7EDFF084C084E0546B44200D3AA
:1011800070BD63685B792BB123685B6813B1294636
:10119000204698471034F1E7288E0000388E000072
:1011A00010B5044C0449204606F076FA034B1C6047
:1011B00010BD00BF8801002004910000BC09002080
:1011C000084A094808B500231370084A1360084A02
:1011D0004FF400411360FFF785FFBDE80840FFF7BB
:1011E000DFBF00BFC50B002073790000C4090020D9
:1011F000C8090020014600220148002306F06DBA0C
:1012000088010020014806F006BB00BF88010020CD
:10121000024B0146186806F050BB00BFBC09002015
:10122000014806F086BB00BF8801002070B5284B3E
:10123000187800284BD0FFF7E5FF054690B1BFF3C3
:101240005B8F244B53E8001F013943E80012002A4A
:10125000F8D1BFF35B8F204C204EB4422DD32846EB
:10126000FFF7D6FF1E4B1F4C1B68002B19DD07F044
:10127000B5F94FF47A72A0FB020302FB0131C30BF4
:10128000D4E9002043EA41439B1A4FEAD13140F2AE
:10129000E93261EB0001934271F1000101D3FFF7E4
:1012A00067FFD4E9003213F57A7342F10002C4E912
:1012B0000032BDE87040FFF7B3BF63685B7923B1CC
:1012C000236829461B68204698471034C5E770BD3F
:1012D000C40B0020C8090020288E0000388E0000B2
:1012E000C4090020C006002070B50D4D297861B9F1
:1012F0000120FFF7A9FE0B4C0B4EB44206D3FFF7BB
:1013000095FF0028FBD101232B7070BD63685B79CA
:101310001BB1236820469B6898471034EDE700BF57
:10132000C50B0020288E0000388E000000212DE91A
:10133000F0470846FFF788FE044658B340F2676856
:101340004FF0000907F00AFC1B4B1C4A1B581360A6
:1013500033B11B4B1B68092B02DD1A4803F05CFFFD
:10136000194FDFF860A0002544B12046FFF706FEC4
:10137000044618B94FF0FF384FF0FF39FFF756FF1A
:10138000064628B9B5B942464B46504603F06AFFB7
:101390003546E9E74FF0FF384FF0FF39D2E72B68C9
:1013A0009B691BB100221146284698471035BD4263
:1013B000F5D3E8E7054DFAE708000000C009002072
:1013C000C8090020E0010020388E0000288E0000AF
:1013D00013B5184806F0CFFA174B1B787BB14FF0C6
:1013E0002003EFF3118483F31288BFF36F8FFFF7AD
:1013F0001DFF84F31188BFF36F8F02B010BD0F4B38
:101400001B68002BF9D050B900220023CDE900233E
:101410000B484FF40042002304F0C2FCEDE709281A
:10142000EBD1074807F0E8F8064802B0BDE81040E5
:1014300003F0F2BEC8090020C50B0020C00900203F
:10144000C8060020E001002010B5064B1B680446CA
:1014500098472146A060044806F0BDF9BDE8104059
:10146000FFF7B6BF1C00002088010020044A054B8E
:101470009B1AB1EBD30F34BF52F8310000207047F4
:10148000C88D0000288E0000084BC31A10B41B1131
:1014900044680133237143689A7143681960436853
:1014A00001225A715DF8044BFFF72CBE288E000014
:1014B0002DE9F04F8FB004AFC1F34A28B8600D4654
:1014C00091467B600C0DB8F1000F63D0002607F148
:1014D00014034FF0040B4FF00A0AC7F80C80C7E959
:1014E00007667E620193CDF808B0CDF800A007F141
:1014F0001C03F96832464846FFF73AFAB0F5006F28
:1015000003461CD36C468AB0D9F8041004AB2648B5
:10151000C3E9050140F2FF71D9611A464FF4007129
:101520001984224B42F8103F214833464FF41251A0
:10153000FFF7BEFFA5462C37BD46BDE8F08FC0F3D0
:101540000A0804F11700184420F0070080083B60E7
:10155000FFF750FE68F35325044690B13B68154AE7
:10156000C7E9083600F1100107F11403F961CDE96C
:1015700000A3CDF808B0F96807F11C034846FFF74F
:10158000F7F968F353257B68B9682A46204606F0C8
:1015900028FAD0E704F1170020F007008008FFF7D1
:1015A00029FE0446EDE700BFE394000004000001BB
:1015B000F08D0000B77900002DE9F04F87B0DDE92C
:1015C0001269DDE9105A04460F4693469846A6B3C1
:1015D0001021CDF80090334652460020CDF81490EB
:1015E000FEF7F4FF014605F117000844144B039180
:1015F00004F007040BF0070BE40020F0070003EAF7
:10160000412344EA8B1480081C43FFF7F3FD44EAAE
:101610000554054640B13EB10399CDF800903346DC
:1016200052461030FEF7D2FF43462246394628463E
:1016300007B0BDE8F04F06F0D4B93146D3E700BF9C
:1016400000FE0F000EB403B503AB014653F8042BA4
:101650000448019301F0F2F902B05DF804EB03B025
:10166000704700BFF57A0000CA0605D48B064CBF50
:1016700002490349FFF7E6BF704700BFCC95000061
:10168000CB9500002DE9F04F8BB09B469DF8543070
:101690000593DDE916930693059B0892DDE918761C
:1016A00004460D46002B00F0878006F001030993E5
:1016B00006F00803079306F07CF906F0020A0246DA
:1016C000002849D084492046FFF7BCFF8046BAF184
:1016D000000F08D016F0440F40D180492A4620461A
:1016E000FFF7B0FF8044099B5BB17D4B059A7D49B4
:1016F00053F822207C4B2046002A08BF1A46FFF7E9
:10170000A1FF079B002B55D0784B059A784953F8D9
:1017100022202046FFF796FF0546089B2BB175490E
:101720001A462046FFF78EFF0544BBF1000F05D097
:1017300071495A462046FFF785FF05444544B9F1F3
:10174000000F48D1002F4ED1F30700F1BF80314682
:101750002046FFF789FFB3E08046B8E7674B18687B
:101760000028BFD0664B4FF47A7E1B68B5FBF3F5BB
:101770004FF46162B5FBF0F300FB1355B3FBF2FAD3
:101780000EFB05F502FB1A323C21B5FBF0FCB2FB67
:10179000F1F300FB1C5501FB13220EFB05F5009233
:1017A000B5FBF0F55749CDE901C552462046FFF794
:1017B00049FF97E7079DB0E7BBF1010F06D1B9F1EB
:1017C000000F64D1002F7BD000250CE0B9F1000F91
:1017D000F8D04D485CE04D484D494B46224605F057
:1017E000AAFC002F68D0DFF83891DFF838A1102F5D
:1017F00031462046B84628BF4FF01008FFF734FFA7
:101800004FF0000B5D4545DC069B51461A7820469B
:10181000FFF718FF4FF0010B1BF0070F03D14946EC
:101820002046FFF70FFFD8453BD9069B514613F8DA
:101830000B202046FFF706FF0BF1010BBBF1100F49
:10184000EAD1344920464FF0000BFFF7FBFE5A4621
:10185000069B9A5CA2F120015F2928BF2E222E4907
:101860002046FFF7EFFE0BF1010BBBF1100F1DD06F
:101870001BF0070F03D149462046FFF7E3FED8458A
:101880005A46E5D849462046FFF7DCFEEBE71F48FD
:10189000059DA1E749462046FFF7D4FE0BF1010B59
:1018A000B0E71E492046FFF7CDFEC5E7069BB7EB24
:1018B0000807434406939AD1059B002B7FF444AF5D
:1018C00020460BB0BDE8F04F06F007B9064A0549BF
:1018D0002046FFF7B7FE3AE7279500002B9500005A
:1018E00028910000409B0000229500003C910000E0
:1018F00050950000569500005A950000D40900202C
:10190000D0090020349500002B7B0000F57A000000
:101910003D2A0000699500006B9500006595000068
:10192000679500005F9500002DE9F0410F884B6836
:101930008E6886B005460C469046C7F382175BB1A9
:10194000144A9B1A43F3CF01002920DB2078C0F30F
:10195000C200FFF78BFD03462146608851F8102B2B
:101960000197C2F34A22002A01EB0204C0F30B10D4
:1019700008BF00210022CDE90408CDE9021400923D
:1019800031462846FFF77EFE06B0BDE8F081002311
:10199000E2E700BFC88D000073B542F20F738B42BF
:1019A00028BF0B4605680F4A04460521684604F027
:1019B00079FA63680C495B6806460B22284606F0F4
:1019C0007FF863683246694628465B6806F078F817
:1019D000636806495B681B22284606F071F802B06E
:1019E00070BD00BF3C9D00008A9500006E95000010
:1019F000074A00210123904206D8064A01B9012373
:101A00001360054B1860704740085B000121F2E746
:101A100040420F00D0090020D4090020034B0122CE
:101A20001A70034B034A1A60704700BFC60B0020B0
:101A3000F8090020C90B0020014B002019607047F5
:101A4000EC090020024B034801221A7006F045B849
:101A5000C70B00206C9100000148FFF79DBF00BF3D
:101A60006C91000010B5064B18680C46FFF734FB6C
:101A700021460346BDE8104002480F22184700BF28
:101A8000EC0900206C91000010B9074B18707047EA
:101A9000064B1B781BB142F2107006F0D8BB4FF416
:101AA000A470002103F07EBFC60B0020C70B0020EE
:101AB0002DE9F74FDFF8989199F8003007460C466A
:101AC0003BB95E4E82463B199A4540D324EAE47006
:101AD00017E0DFF88081012599F80060A6B903F0CE
:101AE000A9F830462246394603F02AF8064603F0A4
:101AF000ABF8FEB1012388F8003099F800307BB9CB
:101B0000204603B0BDE8F08F22463946002003F09E
:101B100017F80646EDE72846FFF7B6FF6E1E354676
:101B2000002003F07DF80028EAD098F80030002B60
:101B3000F1D1E5E798F80030002BE1D0013D2846CF
:101B4000FFF7A2FF98F80030002BC5D1D8E71AF8AC
:101B5000012B33680A2A69D1394DDFF8FC905A1BF2
:101B6000012A04BF01333360D6F800800D2308F842
:101B7000013C0A2388F80030D9F80030019308F1BD
:101B80000102002B32602ADD2E4B1B683BBB019B00
:101B90002B49632BA8BF6323521B01F117009B46FF
:101BA000802306F0AFFD284B254A03F1140153F8BA
:101BB000040B42F8040B8B42F9D119889B7893707F
:101BC000118008F118031F4A336001231360019B41
:101BD000092B19DC20236B750BF130032B7503F0F7
:101BE00029F832681649521B002002F0A9FF8046EE
:101BF00003F02AF8B8F1000F12D1D9F80030013300
:101C0000C9F8003035605EE70A23BBFBF3F203FB43
:101C100012B330336B7530323E232A75EB74DEE736
:101C2000084A0023C9F800301360EBE707498B42EC
:101C30003EBF591C31601A7045E700BFF80900200B
:101C4000C90B0020F0090020B6950000480C0020C8
:101C5000C70B0020C60B0020F4090020014B0360D5
:101C6000002070477C9100002DE9F84F804600AFBE
:101C70000C46002965D0E9468AB0D1E90012A36874
:101C80006D4633482E464FF0050AC5E90501C5E902
:101C9000072346F810AF2F48324600234FF4215156
:101CA000FFF706FCCD46D4E903126369AD462A4826
:101CB000C5F810A0C5E90501C5E90723254800239B
:101CC00032464FF42151FFF7F3FBCD46E369234A37
:101CD0002048DFF894B0012105F0DCFE26460025FF
:101CE0004FF00A0AE9468EB0D6E908E0D6E90A13B1
:101CF0006A46C2F81CE005F1010EC2E908E0A81C22
:101D0000C2E90A01E91CC2E905B5C2E90C1342F8AF
:101D100010AF1048002345F240010435FFF7C8FB1F
:101D2000102DCD4606F11006DCD1236E0C4A094871
:101D3000012105F0AFFEA3690A4A0648012105F01A
:101D4000A9FE2146404602F085FFBD46BDE8F88F5A
:101D5000FD950000088E00002C9600005B960000A8
:101D6000AD960000BC9600006A96000030BFFFF7F9
:101D7000FDBF00BF114B124A2DE9F041D518DFF825
:101D80004C80013DB5FBF3F55D430E4B08EB0304BE
:101D9000013CB4FBF3F403FB04540E1B07460A4951
:101DA000304606F0E3FD701942460021083E06F079
:101DB00005FE7E6704F10800BDE8F0810100000027
:101DC0000000000004000000388E00000400000045
:101DD000044B99689869884203D003494FF08052B8
:101DE0000A607047800B002004ED00E070B5294CBC
:101DF00006460D462848294905F0B0FEA36AD904D5
:101E00003CD52548264905F0A9FE1720A36A1A05E6
:101E100004D52148234905F0A1FE18201D4CA36AD2
:101E20009B0512D51C48204905F098FEA36BA26AB9
:101E3000100409D51D4A1848012105F02BFE1EB1DA
:101E4000A36A23F40043A3621920124CA36A590524
:101E500004D51148164905F081FE1A20A36ADA0557
:101E60000ED50D48134905F079FE1B20094A936AE7
:101E700043F47F43936200232B7070BD1620C5E7A7
:101E8000A36A9B04F2D504480B4905F067FE1C20A9
:101E9000ECE700BF00ED00E0088E0000EA960000CD
:101EA0000097000011970000249700003D97000064
:101EB000529700006D9700008597000010B5204CE8
:101EC0002049214805F04AFEA36A990136D51E48EB
:101ED0001E4905F043FE1E20A36ADA0104D51A4804
:101EE0001B4905F03BFE1F20154CA36A1B0304D5BC
:101EF0001548184905F032FE2120A36A590304D57C
:101F00001148154905F02AFE22200D4CA36A9A03B8
:101F100004D50D48114905F021FE2320A36ADB03F7
:101F200004D509480E4905F019FE2420044A936A95
:101F30006FEA03436FEA1343936210BD1D20CBE7A2
:101F400000ED00E0B4970000088E0000CC97000080
:101F5000DF970000F9970000179800003C980000F8
:101F6000569800002DE9F843364D8046894636489C
:101F70003649174605F0F2FDAB6ADE0627D534492F
:101F8000314805F0EBFD1124AB6A1D0704D531493A
:101F90002D4805F0E3FD12242A4DAB6A980718D5A9
:101FA0002D49294805F0DAFD6E6BAB6A190646D556
:101FB0002A4A25483346012105F06CFDB9F1000F8E
:101FC00003D0AB6A23F08003AB62132403E0102438
:101FD000DAE76FF015061B4DAB6ADA0704D5204926
:101FE000194805F0BBFD1424AB6A9B0604D51D49B6
:101FF000154805F0B3FD1524124B9A6AD50602D494
:102000009A6A90070AD55B68190507D5414630469C
:1020100000F0F8FA10B180F309880224094B9A6A9B
:10202000920642BF5A6A22F400525A629A6A42F0F9
:10203000FF029A6200233B702046BDE8F8836FF0F0
:102040001506C2E700ED00E0088E00008198000050
:102050009798000011970000CA980000E2980000CD
:10206000F8980000859700002DE9F041634B9CB083
:10207000D3F8048000AF0546C8F30804002686F3B1
:102080001188BFF36F8F02F07F43B3F17F4F07D109
:1020900002F00C03082B12D159495A4805F05EFD95
:1020A000002635460023FB71E31E092B00F28480D5
:1020B000DFE803F00A7A7D778282828282801007CD
:1020C0004CBF0D460126EDE74F494E484B4C05F0FD
:1020D00045FD0023FB71E36A9A0705D54B49494842
:1020E00005F03CFD002433E0E36A002B01DA4849A7
:1020F000F5E7E36A5B00F5D54649424805F02EFD59
:102100006369AA6943F480736361BFF34F8FBFF3C0
:102110006F8F636932F8022C23F480736361BFF31D
:102120004F8FBFF36F8F4DF602739A4209D0A36AA7
:10213000DBB24BB3FA1D01212846FFF713FF04461B
:1021400006E02B68344A2F48012105F0A3FC2C68D7
:10215000FB79ABB96822294607F1080006F006FCB6
:102160007B6A002E44D0C3F3080222B96FEA5323DE
:102170006FEA43237B6207F108012046FFF774FDF5
:102180007037BD46BDE8F081A36A13F47F4F04D0D9
:10219000F91D0120FFF72AFED1E7A36AB3F5803FBE
:1021A000A0D3FFF78BFECAE7FA1D0021C4E7F91D93
:1021B0000020EFE7194992E7194A1A4B18F4F87F03
:1021C000E8468AB018BF13466A461749C2E90513A4
:1021D0004FF400731384103C144BD46142F8103F49
:1021E000084800234FF41151FFF762F9C54679E71B
:1021F00023F4FF7323F00103BCE700BF00ED00E010
:1022000045990000088E0000709900008799000031
:10221000A8990000B6990000D5990000F199000036
:102220002C99000017990000159A00000400000185
:10223000024A536943F010035361704700ED00E018
:10224000EFF30880EFF3098101B57246FFF70CFF49
:1022500001BD00BF002080F31488BFF36F8F00F032
:1022600039FC00200D490860BFF34F8F0C4880F304
:10227000088800F03DF8202080F3118809484FF4C9
:102280000461401880F30988EFF3148002210843A9
:1022900080F31488BFF36F8F00F01EF994ED00E017
:1022A0000022002000140020BFF34F8F0549064B89
:1022B000CA6802F4E0621343CB60BFF34F8F00BFE4
:1022C000FDE700BF00ED00E00400FA050749D1F882
:1022D00090200023C2F307221846934200DB704788
:1022E000C1F89830C1F8A0000133F6E700ED00E036
:1022F00008B572B6002383F31388FFF7E7FF144B8A
:102300004FF0FF32C3F88020C3F88420C3F8882040
:10231000C3F88C20C3F89020C3F89420C3F8982009
:10232000C3F89C20C3F88021C3F88421C3F8882116
:10233000C3F88C21C3F89021C3F89421C3F89821E5
:10234000C3F89C2162B6BFF34F8FBFF36F8F08BDF8
:1023500000E100E0084B9B6883420BD1EFF305835B
:1023600043B1064B5A6842F080525A605A6A22F4CE
:1023700000425A6206F0D4B8800B002000ED00E065
:10238000094A93686FF00A01D967084998674B6852
:1023900043F080534B60002383F31188BFF36F8FAA
:1023A0009368D86F704700BF800B002000ED00E0FD
:1023B00024498A6882F8C1E04FF030001044EFF3FE
:1023C000098C80E8F01F1EF0100F03D102F180008D
:1023D00080EC108A202080F31288BFF36F8F1A4F91
:1023E0004FF000668A698A603E604FF074041419E9
:1023F0002068164C206092F9C1E0906F002393672B
:1024000080F311881EF0100F03D00023E1EE103A84
:1024100003E002F1800090EC108AEFF3148323F0C4
:10242000040383F31488BFF36F8F04B5104600F0E4
:102430009FF9BDE8044002F1300090E8F01F8CF3F2
:1024400009887047800B002004ED00E0FC090020A3
:102450001EF0040F0CBFEFF30880EFF309808169D1
:1024600011F8021C0229FFD001B505F06CFB01BD7B
:1024700040B2002807DB044A4109012300F01F0095
:10248000834042F82130704700E100E0054B4209EB
:1024900000F01F0053F82220012303FA00F010403F
:1024A000704700BF00E100E040B20028A8BF00F183
:1024B000604001F10101B8BF064B4FEA4111ACBFCA
:1024C00000F5614000F00F00C9B2B4BF195480F8A4
:1024D0000013704714ED00E0144A08B5144B22F0C5
:1024E0007F029A60BFF34F8FBFF36F8FD3F88820BE
:1024F00022F47002C3F88820D3F8882042F4A002A6
:10250000C3F888204FF04042C3F83422BFF34F8F06
:10251000BFF36F8F0023E1EE103A02F04DFC03F0A1
:1025200073FA00F0F9F802F099FC00BF0000000017
:1025300000ED00E0017B890705D5416E4031416621
:10254000816E4039816642F8203C009B42F81C3C79
:102550000F49019B42F8183C029B42F8143C21F0C1
:1025600001014FF0807342F8043C42F8081C00233C
:102570008367037B13F0020FA2F120024FF608538A
:1025800008BF4FF47D430265C0F8C030704700BFFC
:102590002D0D0000037B13F0020F194B03D190F8AF
:1025A000C120D20617D45A6B42F080425A63D0F849
:1025B000C030190709D443F00803C0F8C030436E97
:1025C00040334366836E403B8366037B43F00203E4
:1025D0000373802070475A6B22F080425A63D0F810
:1025E000C0301A0701D44020704723F00803C0F818
:1025F000C030436E403B4366836E40338366F2E7F0
:1026000000EF00E00C4A03469068A0B1D0F8C0206B
:10261000406E12F0080F0CBF4022802213F1160FFB
:1026200004D0821A9A4205D8834203D2814228BF3D
:102630000020704700207047800B0020114B9B68E2
:1026400083421BD1EFF30580C0B94FF02002EFF3B6
:10265000118182F31288BFF36F8F1A7B22F002027E
:102660001A73EFF3148323F0040383F31488BFF386
:102670006F8F81F31188BFF36F8F70476FF0150074
:10268000704700BF800B002008B514460D4600229D
:10269000E1EE102AEFF3148222F0040282F3148890
:1026A000BFF36F8FBFF36F8F094A0A4B9060426F81
:1026B0001A6000F05DF8204685F30988002163B6B2
:1026C00081F31188BFF36F8F00220023FEF72EFBEA
:1026D000800B0020FC090020014910220A6070478D
:1026E00010ED00E072B6404080F31188BFF36F8FA9
:1026F000BFF34F8F30BF62B6BFF36F8F704700BF1D
:1027000072B6494081F31188BFF34F8F20BF80F329
:10271000118862B6704700BF044800232021C21808
:102720000133302B82F80013F9D1704700E100E04B
:1027300001B5EFF30580A0F110004FEAC000044995
:10274000014409C99847BDE8014002490847000013
:10275000488C0000D11D0000024B034A03480121B0
:1027600000F08AB800000220000000207C910000E8
:1027700010B50446FFF70EFF626E03460548D21AF5
:10278000C0E90023044B8360BDE81040012100F044
:102790007DB800BF000A002000000B15072808B50F
:1027A000034607D90C480D4A012105F073F96FF073
:1027B000150008BD0A48C0F898300A6822F01F02C8
:1027C0001A4342F01002C0F89C208A6842F00102CD
:1027D000C0F8A0201846ECE7008E00002C9A0000FC
:1027E00000ED00E0F0B50E4685B01F46044600251A
:1027F000B5420DDA606810B397B1431E18420AD093
:10280000104A11482B46012105F044F96FF01502DA
:10281000104605B0F0BD1F28F2D921680B42EFD158
:102820002368019305F0A2F9A36801A90343D0B27C
:102830000393FFF7B3FF10F1160FE7D0421C0135E9
:102840000C34D5E7529A0000008E0000044B05229C
:10285000C3F89420BFF34F8FBFF36F8F704700BF53
:1028600000ED00E0BFF35F8F024B0022C3F894201D
:10287000704700BF00ED00E010B5034C0123227843
:10288000FFF7B0FF207010BD600C002008B5094AAA
:1028900000231278FFF7A6FF10F1160F03D0064BA6
:1028A0000022072800DD08BDC3F89800C3F8A02067
:1028B0000130F6E7600C002000ED00E0F0B54F4974
:1028C0000868082885B000F29680FFF7CBFF4C4CD3
:1028D00049680022904201F10C010DD1494D4A4F47
:1028E00028706846FFF7BAF900240646A64216D1BA
:1028F000FFF7ACFF00202DE0C4F8982051F80C3C05
:1029000023F01F03134343F01003C4F89C3051F825
:10291000043C43F00103C4F8A0300132DAE7009828
:1029200000EB04114FEA041CCB683B40B3F5000FE9
:102930004FD011D8B3F5001F35D0B3F5800F3DD07F
:10294000B3F5801F17D0314A3148012105F099F8BD
:102950006FF0150005B0F0BDB3F1807F42D0B3F148
:10296000007FF0D150F80C3088684A6805F0FEF816
:1029700040F4802009E050F80C3088684A6805F07F
:10298000F5F840F0885040F43020039001A92878F1
:10299000CDE90123FFF702FF0028D9DB2B780133B3
:1029A0002B700134A2E750F80C3088684A6805F0B3
:1029B000DDF840F0885040F40020E6E750F80C3095
:1029C00088684A6805F0D2F840F0E06040F40030D2
:1029D000DBE750F80C3088684A6805F0C7F840F02B
:1029E0008270D2E750F80C3088684A6805F0BEF86B
:1029F00040F08870C9E74FF0FF30ABE788910000E6
:102A000000ED00E0600C00200000F0FF759A00006F
:102A1000008E000008B5024B1B689847002008BDD7
:102A20000C0A0020034B044A1860937843F0020319
:102A3000937070470C0A002020000020F0B587B08A
:102A400007460E4614460021102268461D4605F032
:102A5000B5FF02238DF802302A46054B019321462B
:102A60006846CDE9047603F0E5FA07B0F0BD00BF93
:102A70008D7B000008B5044804F0B5FB404080F3AE
:102A800011884FF0020002DFA69A000008B506493F
:102A9000064821F00701C1F1005202F5003204F0AE
:102AA000DBFB002008BD00BFC7260020100A002065
:102AB000024B0122C3F840250020704700E001408E
:102AC00020B1034B800143F001031847704700BF5A
:102AD000408E000001F0B2B9084B70B5C31A0D4624
:102AE00007499B10044659430648402205F075F8F3
:102AF0002B4601462046BDE870401847300A0020AA
:102B0000B76DDBB6D08B000073B50C4C0C4A40237C
:102B1000041B00930D460B460A49A4106143064668
:102B2000094805F086F8011E05DA30462B4602B04A
:102B3000BDE87040184702B070BD00BF300A0020E9
:102B40009D7C0000B76DDBB6D08B0000002270B515
:102B5000012104461046FFF7A7FC0F4801F05AFA7E
:102B60000E4B984215D101F065FA26690C493046A2
:102B700004F000FC00280BDB0125356424690849BA
:102B800004F11C0004F0F6FB002801DBE5640020E2
:102B900070BD6FF00400FBE7D92B00000000AD0B07
:102BA000A891000070B501460C2309484B43C41896
:102BB000D4E90E56403300221844A26304F0FAFF11
:102BC0002DB132462B460348BDE87040184770BD12
:102BD000300A0020D08B000010B1012804D07047CB
:102BE000034B1B6C5B0701D1FFF7DCBF704700BFD5
:102BF000300A002008B54FF02003EFF3118183F372
:102C00001288BFF36F8F124A136843F002001060FE
:102C1000DA0708D481F31188BFF36F8F0120BDE874
:102C2000084001F019BA4FF08043D3F80C24D3F8D0
:102C30000C34DB07EED5074804F0BCFF81F31188A4
:102C4000BFF36F8F0020BDE80840FFF7ABBF00BFA8
:102C5000800A0020700A00207FB500220123CDE900
:102C6000022304ABCDE90433094ACDF800D06B460A
:102C7000CDF804D005F00BF8002805DB4FF48042B6
:102C80000023684602F0EEFA07B05DF804FB00BFCF
:102C9000BD7C000010B54FF02003EFF3118483F3E7
:102CA0001288BFF36F8F074A136823F00201DB0716
:102CB000116002D4012005F06BF984F31188BFF391
:102CC0006F8F10BD800A00202DE9F0413849BFF315
:102CD0005B8F0746012251E8003F41E800200028B1
:102CE000F9D1BFF35B8F33B9324933484B60CB60C6
:102CF0008A6004F052FB7B1E012B2BD8012F07D1D9
:102D00004FF08043D3F81C3403F00303012B21D090
:102D100005F0B1FA0546F8B9284B1B78E3B14FF03E
:102D200080430222C3F808230646DFF894804FF060
:102D30008044D4F81824D4F81834D20316D503F0FC
:102D40000303012B01D0012F10D15DB386F311884D
:102D5000BFF36F8FBDE8F0814FF02003EFF31186D2
:102D600083F31288BFF36F8F0125DEE7ADB13046E4
:102D7000FFF7C6FCD4F81835002BDAD1D4F80421BB
:102D8000002AD6D0C4F80431D4F804310123C4F8A1
:102D90001835C8F88031A360CBE70021212002F06C
:102DA00001FEE7E74FF080430222C3F80423D1E796
:102DB0002C0A00201C0A00204C0A0020721000205F
:102DC00000E100E010B5044C2046FDF7A9FF2046C5
:102DD000FFF728FE002010BDDD2D0000F7B5134ED3
:102DE0008DF807000446032501F024FF01220DF1B0
:102DF0000701002001F0E8FE074601F025FF27B19A
:102E000001233370204603B0F0BD3378002BF9D096
:102E1000013D08D005F02FFA0028E5D1002142201D
:102E200002F0C0FDE0E73570ECE700BF610C002068
:102E3000F0B54068057B01F01F0444EA45140569BC
:102E400087B0002D64D0B2F5001F00F1100506D147
:102E50002146284605F01CF9002007B0F0BD01AE60
:102E60000027B2F5800F0197776039D1B3F1007F69
:102E700014BF052304238DF804300023CDE9046337
:102E80000393836823FA01F111F001011AD1B2F121
:102E9000A07F17D104F01F03620903F5E0732AD065
:102EA000012A3BD11F4A52F82330DB070AD40DF127
:102EB000030632462146284601F0AAFB1A4B9842E7
:102EC0001CD0029603AA2146284601F063FA174B4C
:102ED000984220D101222146284601F001FCBBE79F
:102EE000B3F1C06F05D0B3F1007F14BF01230223FB
:102EF000C1E70323BFE74FF0A042D4E7314628469D
:102F000001F0E8FB094B9842DBD06FF00B00A4E71F
:102F10006FF08500A1E76FF015009EE751F82330B0
:102F2000FFDE00BF000300500400AD0B0000AD0B3E
:102F300038B545682B69B3B11035284601F0BAFBA6
:102F4000044680B90146284601F07CFB084B9842B4
:102F50000BD108492246284601F054FB22460521A0
:102F60000620FFF7A1FA002038BD6FF00400FBE750
:102F70000000AD0B792F0000420970B5034602D066
:102F8000012A17D070BD0D4E326951680029F9D061
:102F900003F01F0301250C689D400029F2D08A68C8
:102FA0002A4002D04B68304698472CB1236821460E
:102FB0001C46F2E7024EE7E72346F8E7008C0000E4
:102FC000E88B00002DE9F043466840F20635D00654
:102FD000337B87B002EA050554BFC2F340100320DB
:102FE00001F01F07B5F5837F144647EA43178DF8B4
:102FF000030044D00FD8062D18D007D8B5B1022D44
:103000003FD06FF0150007B0BDE8F083B5F5807FC5
:10301000F7D101250AE040F20222954233D0B5F5FE
:10302000407F32D0B5F5007FEBD1022522032ED5AB
:10303000726801238B40C2F80835326992BB07F0F1
:103040001F037F092BD0012F79D13F4A02EB830266
:1030500084F48033D2F80017C3F30043C4F3404430
:1030600044EA430421F4E16144EA800421F00701C9
:1030700044EA05230B43C2F800370020C3E70725C5
:10308000D4E70425D2E70525D0E70325CEE763037F
:1030900041BF012372688B40C2F80C35CDE74FF079
:1030A000A042D3E710360DF102023946304601F056
:1030B000AFFA14F4403F80460CD13946304604F054
:1030C000E5FF224B9845D8D19DF80210304601F01B
:1030D000FBFAD2E701AB4FF0000903AA39463046AC
:1030E000CDE90439CDE90199CDF80C9001F052F900
:1030F000164B984285D114F4003315D09DF8033057
:103100008DF80E3084F48034C4F300444B4603AA97
:10311000394630468DF80C508DF80D4001F0F4F929
:103120000A4B9842CDD06CE7CDE9043303AA0DF1E8
:10313000030339463046039301F02CF9F0E703F519
:10314000E07352F82330FFDE000300500000AD0BA7
:103150002DE9F04FDFF81491DFF814A1DFF81481A6
:103160008E4600264FF0010BF3B29E4502D8002098
:10317000BDE8F08F50F82610CD04C1F3432401F0D0
:103180007F0362D47F2B4FEA114119F8044008BF36
:103190004FF0FF330A295BD8DFE801F0060C343A20
:1031A0005A5A5A373A3D0C00C2F80C355D1C39D1D9
:1031B0000136D9E7C2F814355F1CF9D000252F4637
:1031C00050F8261001F4005CBCF1000F1CBF002772
:1031D000012503F01F0C5B0934D0012B3FD143467E
:1031E00003EB8C0CC1F3C1112402DCF8003744EA74
:1031F00081043C4303EA0A0344EA45042343CCF830
:103200000037D5E7C2F80835D0E7C2F80835D3E76C
:10321000C2F81035D0E7591CC2F80C35C8D00027C9
:103220000125CDE759090AD0012914D1454603F0FB
:103230001F010BFA01F1C5F808150125BFE74FF092
:10324000A045F4E74FF0A043CAE76FF015008FE701
:103250006FF085008CE70023C3F80835FFDE0CF51E
:10326000E07C002353F82C30F8E700BF0D9B0000F2
:10327000F0F8FCFF00030050074BD3F8082142B1DF
:103280000020C3F80801D3F80821D3F818350B70D3
:1032900070474FF0FF30704700200040024BD3F8DA
:1032A0008004C3F88004704700200040F8B50E4643
:1032B00004F0E1FF1A4D78BB64240127BFF35B8F54
:1032C00055E8003F002B03D145E80072002AF7D1F2
:1032D000BFF35B8F07D021200021013C02F062FB8D
:1032E00014F0FF04EAD10F4C0023C4F81C31D4F8C9
:1032F0001C310123A360C4F81C654FF47A76D4F81E
:103300001C3123B9012004F0E7FD013EF7D1012370
:10331000E36000232B60F8BD01232B60E3E700BFCF
:103320009C0A00200020004010B50C46436871B193
:10333000012916D11868002104F02BFD002805DBB7
:10334000094B0422C3F8002500201C6010BD064A6A
:10335000C2F800151868012104F01BFD00EAE070B6
:10336000F4E76FF08500F1E70020004070B55B4A9C
:10337000436804690025C2F80055064629461868C6
:1033800004F007FD002807DB63793669012B04D0C0
:10339000032B27D06FF0850070BD2946A379032B3E
:1033A000F8D1E0790028F5D12279012A1CD0022A2F
:1033B0001CD0002AEED110462368B3F5164F6FD00B
:1033C00031D8B3F5165F6DD01AD8B3F5966F6BD0C0
:1033D0000ED8B3F5967F6AD0B3F5167FDAD14FF4E5
:1033E0001C3347E01021D9E74FF480700E22E3E749
:1033F000B3F5166F5ED0B3F5965FCBD1384B39E09D
:10340000B3F5E14F59D007D8B3F5615F57D0B3F5A5
:10341000964FBFD1334B2DE047F61225AB42B9D1C1
:103420004FF4000326E0B3F5613F4BD011D8B3F55C
:10343000963F49D008D84DF6C025AB4246D0B3F5EB
:10344000614FA7D1284B15E0B3F5E13FA2D1274B3F
:1034500010E0B3F5612F3CD007D8254DAB423AD0F0
:10346000B3F5E12F96D1234B04E0234DAB4291D12C
:103470004FF08053194D0A430243C5F82435C5F86F
:103480006C2594E8030086E8030004230020C5F8B7
:103490000035C5F80801D5F8083101232B607BE71A
:1034A000164BE7E7164BE5E74FF49E23E2E74FF4B0
:1034B000A033DFE74FF41D23DCE7124BDAE74FF4CC
:1034C0006C13D7E7104BD5E7104BD3E74FF46503E8
:1034D000D0E70F4BCEE74FF08063CBE700200040F2
:1034E00000B0130000A04E0000F0EB0000E0D70198
:1034F00090D0030000705F0740420F0000509D0015
:103500000050270000F0750000B0AF0300903A01B2
:1035100000D0BE0E2DE9F04182B044680569D4F8B0
:103520002C8000AF06463A1D0021404604F01EFCE8
:10353000002828DB7B68D8F8002019791868FFF785
:1035400007FE00281FDB2B46334A04F10801204602
:1035500001F016FA314B984219D06C4688B03368A6
:103560006A462F49C2E905134FF4007393832D4B2C
:1035700042F8103F2C4800234FF4E251FDF798FF2A
:103580006FF00F00A5460837BD46BDE8F081206BFF
:10359000002836D004F060FE002837D0E38E206B80
:1035A00094F8341043F4302242F00602D0F810C0F0
:1035B000D0F808E013F0010F4FF00106DCF80030FE
:1035C00006FA01F614BF3343B343CCF80030DEF8FB
:1035D000003098470028D6DB94F834301348012295
:1035E00002FA03F3C5E92503206B8368DB6905F163
:1035F000900173B198470028C5DB23680022C3F807
:103600000025284604F0D9FB0020BCE76FF012002B
:10361000B9E76FF05700B6E7137E00000000AD0B6E
:10362000239B000003000001208E00005F7E00004D
:103630002DE9F04F87B00469466802AF81469A468B
:10364000934672B3D2F80080BAF1000F2BD0DAF8AB
:1036500000508B889A0428D479604FF0FF334FF0E4
:10366000FF3204F1100001F0FDFD97F8383084F8C6
:103670004C30FB6B796863643B6C6160A364D9F880
:103680001000036899425AD08A88D9F804C01305FB
:1036900012D59A4A9A48012104F0F3F96FF0850592
:1036A00023E09046D0E75546D3E7A369002BD3D15A
:1036B00063689942D0D1E2E712F001031CD16D4654
:1036C00088B0D9F8001002AA8E48C2E905014FF46B
:1036D000007191838C4942F8101F89484FF4E251E0
:1036E000FDF7E6FEAD466FF015050023636004F1BB
:1036F000100001F091FDF8E0130705D5834A8048DA
:10370000012104F0BEF9EEE7C2F34512082A01D008
:103710007F4AF4E78B680BB17E4AF0E701608B8843
:10372000DCF80020190913F0020F01F0010103F089
:10373000040314D0C3B141F00601C2F85415BBF123
:10374000000F03D0DBF80430012B06D8BAF1000FCC
:103750000DD0DAF80430012B09D96F4A9AE7002B13
:10376000EBD041F00201E8E741F00401E5E7B8F1F0
:10377000000F3DD0D8F8043043B1D8F8003003F042
:103780006043B3F1005F01D0644A83E7306B0028E7
:103790004DD1D9F804C0D8E90002BCF82810002D9A
:1037A0007ED18A422B4630D8009301462B46604694
:1037B00001F020F95A4B984278D1306B002878D12B
:1037C000D4F800C094F84C30BCF8042002F0010298
:1037D000002B00F0A980336B002A7BD0256F336B60
:1037E0001BB133680022C3F80025002D74DA7CE792
:1037F000306BE0B9D9F804C0002D47D06B68BCF835
:1038000028102D6842469942CED23D4800930121AE
:103810001346444A04F048F96FF01505336B002B4A
:103820003FF463AF33680022C3F800255DE796F8E4
:1038300034A0836807F10C015B689847D8B9FA682F
:10384000012303FA0AF3134215D1306B96F83410B2
:103850008368D3F818A0BAF1000F04D04FF080634A
:103860004FF48002D0474FF0FF324FF0FF3304F1A6
:10387000780001F0F7FC33680222C3F80025B8F1A4
:10388000000F86D1D9F804C01DB928462A462B4618
:103890008AE76B68BCF828102D6840464246B2E7BC
:1038A0008A42D5E900E3B0D87546ACE76FF004056D
:1038B000B4E796F83410012505FA01F183681B6915
:1038C000984796F83430306B05FA03F18368DB686B
:1038D000984775E773B9002523689B889B0404D437
:1038E00094F84C30002B3FF400AF28461437BD4607
:1038F000BDE8F08F3368C3F80025ECE7439B000078
:10390000208E00005D9B000003000001809B0000F2
:103910009F9B0000CE9B0000F39B0000179C0000C3
:103920000000AD0B419C0000002A43D1606D13469E
:10393000834231D10023E56D1946A94233D1934228
:1039400038BF13464FF4FA5202FB03F540F2E7305A
:10395000DCF80030B5FBF3F54FF4004CC83500211E
:103960004FF47A720023E5FB0C01FCF7C9FB024619
:103970000B4604F1280001F075FCF8B1144A154813
:10398000012104F07EF8336B1BB133680022C3F8C9
:1039900000256FF07305A8E6216D01EBC30101332B
:1039A00049680A44C4E7A06D00EBC10001314068DA
:1039B0000344C2E74FF0FF321346DAE72368256C71
:1039C0009B88DA077FF50BAF002D7FF408AF05E782
:1039D000639C0000208E000070B5012383400E4AD6
:1039E000BFF35B8FDC4352E8001F01EA040542E8A5
:1039F0000056002EF7D1BFF35B8F4FF48032824028
:103A00000648C0F80823BFF35F8FBFF36F8F0B42E8
:103A100014BF0120002070BDA40A00200010014046
:103A200070B40E49D1E90034D01AC31844F100042F
:103A300022F07F46C1E90034A6F50013B3F5400F2C
:103A400009D2074B1B681A0A1B069C19054B42F149
:103A50000005C3E9004570BC02F0ACB810070020B7
:103A6000A80A00201807002011B3BFF35B8F0123C1
:103A7000104A834052E800CF4CEA030C42E800C1F0
:103A80000029F7D1BFF35B8F0B4A4FF4803383409B
:103A9000C2F80433094BBFF35B8F1B68BFF35B8F26
:103AA000C340DB0742BF064B4FF40032C3F800218E
:103AB000704700BFA40A002000100140A00A0020A7
:103AC00000E100E00D4B1868010A0006BFF35F8FAC
:103AD0000B4BD3F80435181841F10001B3F5801FE2
:103AE0000AD2084BD3E90023904271EB030303D2BF
:103AF00010F1807041F10001704700BFA80A00205A
:103B000000100140180700202DE9F04F85B016463F
:103B10001F469DF840A00446FFF75EFF0190FFF7A7
:103B2000D1FFB04271EB070354D23E4B301A67EB22
:103B30000101984271F100014FD23B4B03EB04139A
:103B4000D3E902239F4208BF96425ED037494FF423
:103B5000803804F1500508FA04F8AD00C1F8488334
:103B60002046ADB204F0A7F926F07F4B05F1804561
:103B700004F5A87305F58835DC464FF00309029378
:103B8000029A2CF07F4341F82230C1F84483D1F8E7
:103B90000435274A6FF00200C01A604420F07F40CD
:103BA000904232D9286868B1D1F804350393A3EB69
:103BB0000B0020F07F40B0F5000F26D9204604F01E
:103BC0007AF9039BBAF1000F07D109EB030C09F155
:103BD0000109D5E7BAF1000F09D06FF015052046AD
:103BE0000199FFF741FF284605B0BDE8F08F01239A
:103BF000104ABFF35B8FA34052E8000F184342E81E
:103C000000010029F8D1BFF35B8F07490E9823010B
:103C100001EB0412C8500F9B5360C2E902670025F4
:103C2000DDE700BF01008000000700200010014018
:103C3000FDFF7F00A00A00207FB51C4C1C4BC4F880
:103C40000833C4F848331B4B00254FF0FF304FF0CA
:103C5000FF31C4F80855C3E902014FF48033C4F8BA
:103C60000433154B02264FF400320121C4F80463DB
:103C70001120C3F880212A46FEF716FC1120FEF71A
:103C8000F7FB0E4A0123A360236013600C4B0D4A1F
:103C90000093CDE9015500232846FFF735FF304654
:103CA000FFF712F8284604B070BD00BF00100140B5
:103CB00003000F000007002000E100E0A40A00203C
:103CC000213A0000FFFF7F002DE9F7432F4CD4F885
:103CD000043399070BD5D4F8043143B12C4A00239F
:103CE000C4F80431D4F80431136801331360D4F8F4
:103CF0000433DA032AD5BFF35B8F264B53E8002F3A
:103D000022F0010143E800100028F7D1BFF35B8FD8
:103D1000D30702D4D4F84031C3B10025C4F84051D0
:103D2000D4F84031FFF7CEFE4FF02003EFF31182BD
:103D300083F31288BFF36F8F174BD3E90267B0424A
:103D4000B94106D282F31188BFF36F8F03B0BDE88B
:103D5000F0834FF0FF384FF0FF39C3E90289D3E910
:103D600000101D604FF48033C4F84833C4F840514C
:103D7000D4F8403182F31188BFF36F8F0029E5D06A
:103D8000009032463B4628468847DFE70010014056
:103D9000A80A0020A00A00200007002030B5431C1C
:103DA000124C85B005D08442A8BF0446012CB8BF90
:103DB0000124FFF787FE0E4B0C4DD3E90013401A88
:103DC000B0F5000F10D22218AA4228BF2A46521876
:103DD0004FF0000007490091CDE9010043F10003D5
:103DE000FFF792FE05B030BD2A46F0E7FFFF7F00E7
:103DF00010070020213A000008B5FFF763FE024BD0
:103E00001B68C01A08BD00BF1007002008B5FDF7E9
:103E10006BFA0448044A012103F033FE0020FEF748
:103E200043FA00BFE88D0000B89C0000024AD2F8B7
:103E30000034002BFBD0704700E0014008B54FF084
:103E40008053D3F830210D2A55D14FF08041002204
:103E5000C1F80C21C1F81021C1F83825474AD3F820
:103E60000404C2F82005D3F80804C2F82405D3F8E6
:103E70000C04C2F82805D3F81004C2F82C05D3F8B6
:103E80001404C2F83005D3F81804C2F83405D3F886
:103E90001C04C2F84005D3F82004C2F84405D3F846
:103EA0002404C2F84805D3F82804C2F84C05D3F816
:103EB0002C04C2F85005D3F83004C2F85405D3F8E6
:103EC0003404C2F86005D3F83804C2F86405D3F8A6
:103ED0003C04C2F86805D3F84004C2F86C05D3F876
:103EE0004434C2F87035D1F80034DA0744BF6FF0BB
:103EF0000103C1F80034224AD2F8883043F4700339
:103F0000C2F88830BFF34F8FBFF36F8F4FF08053ED
:103F1000D3F830210D2A0AD1D3F834313BB14FF018
:103F20001023D3F808224FF08043C3F858254FF0F0
:103F30001021D1F80C32DB071FD512480123C0F83D
:103F40000435FFF773FFD1F80C3223F00103C1F8F9
:103F50000C32FFF76BFF0023C0F80435FFF766FF54
:103F6000BFF34F8F0649084BCA6802F4E06213435F
:103F7000CB60BFF34F8F00BFFDE708BD00C000401E
:103F800000ED00E000E001400400FA0530B50468EF
:103F9000CCB1BFF35B8FB4FA84F3C3F11F03DBB280
:103FA00001229A4024EA020250E8005FA54204D1AF
:103FB00040E8002CBCF1000FF6D1BFF35B8FE6D1D7
:103FC00002480B7030BD0248FCE700BF0000AD0B9B
:103FD0000200AD0B10B50368CB40DB0714D40123FE
:103FE0008B400268BFF35B8F43EA020150E8004F49
:103FF000944204D140E8001CBCF1000FF6D1BFF39D
:104000005B8FEED1014810BD0148FCE70000AD0B0D
:104010000400AD0B044B1A7922B9012218601A7101
:104020000248704702487047AC0A00200000AD0B00
:104030000C00AD0B08B5074B1B682BB10020FEF739
:1040400025FA08B9FEF714FA4FF080430022C3F8AE
:10405000182508BDAC0A002010B510B1012843D0C6
:1040600010BD4FF08043D3F81814D3F81824C803B8
:1040700021D502F00303012B04D013B1002003F07B
:104080002DFF00234FF080420220C2F8183508228D
:104090004FF4827303F180430021196002F18042E2
:1040A0001C6801241460154A12680AB34FF080435B
:1040B000C3F80403D4E7D3F81424D107E1D5D3F827
:1040C0001C249207DAD40D4A12681AB10222C3F8EE
:1040D0000423C5E7D3F80421002AFBD00022C3F84B
:1040E0000421D3F80431BBE700224FF48073D1E7F9
:1040F0001A68002AFCD019601B68B1E7AC0A0020DE
:1041000010B54FF08043D3F8002152B10020C3F81E
:104110000001D3F800210122C3F80823104B1B68CB
:1041200098474FF08043D3F8042172B10022C3F8BE
:104130000421D3F80421D3F81824D3F818249207C3
:1041400004D10122C3F818259A6010BD0222C3F8D9
:104150000823034BBDE810401B680120184700BF2F
:10416000AC0A0020036803F01F025B09026004D060
:10417000012B034818BF002070474FF0A040704744
:1041800000030050034A430900F01F00D35C1844A9
:10419000C0B27047D59C000070B50546FFF7F2FF2E
:1041A0000C4C08300E4634F81030DA0508D5C3F34D
:1041B000432304EBC302284654F83330526898472F
:1041C000A3682BB1E26831462846BDE87040184725
:1041D00070BD00BFE400002008B5FFF7D3FF034B1C
:1041E000083033F81000400B08BD00BFE400002089
:1041F00008B5FFF7C7FF034B083033F81000C0F3D2
:10420000400008BDE400002008B5FFF7BBFF034BEA
:10421000083033F81000C0F3401008BDE40000205F
:10422000034611F0010010B5CCB20DD1A207C4F3C2
:10423000400012D5094AD2F820055860C2F820057E
:10424000003818BF012008E04FF0A041D1F8202528
:104250001A60C1F82025002AE8D010BD00030050E4
:1042600010B5FFF78FFF124A083032F81030D90529
:104270001CD5C3F3432123F4F85322F8103002F184
:104280000E04002034F8023F13F4807F03D0C3F300
:10429000432399420AD001302A28F3D1002342F85F
:1042A00031300448BDE81040FFF794BE10BD00BF98
:1042B000E400002050010020F0B50546002004462F
:1042C000012607468C420BD1114BD3F87C2132B129
:1042D0000022C3F87C21D3F87C3140F00040F0BDCF
:1042E000E3B29B0003F580729B0806FA03F31D42BC
:1042F0000BD002F1804202F5C042D2F800C0BCF1FE
:10430000000F02D01760126818430134DAE700BFCB
:1043100000600040F7B506460846FFF733FF194F27
:1043200000F108050C4637F81530DB0727D5304675
:1043300003F088FE2046FFF767FF40B12046FFF7F5
:104340004BFF316800F5A270002341F82030204671
:10435000FFF786FF002301A827F815300194FFF727
:1043600001FF019B00EB8300074BD0F800271340AF
:1043700043F00203C0F80037044803B0F0BD04481E
:10438000FBE700BFE4000020F0F8FCFF0000AD0BED
:104390000400AD0B2DE9FF41164680460846FFF7A5
:1043A000F1FE0D463168044609B32846FFF720FFA9
:1043B00018B12846FFF728FF10BB0023CDE90033D2
:1043C0008DF80E308DF80F300DF10F020B46284698
:1043D0000DF10E0103F0DEFD474A04F1080132F849
:1043E000113023F0020343F0010322F81130736807
:1043F00063B328461F785968FFF7FAFE10B1D1B1B0
:104400003E4826E03C4A04F1080032F8103023F020
:104410002003DB04DB0C22F8103061B1032FEFD84E
:104420007168496891F800C0D8F80010A7B90CF578
:10443000A27C41F82C70304A04F1080132F81130A6
:1044400023F01C0343EA870322F81130B3684BBB07
:104450002B4804B0BDE8F08101EB8C0143EA4C33FA
:10446000D1F810E52EF0030EC1F810E5D8F80010D1
:1044700001EB8C0E43F02003DEF8101522F810300B
:1044800021F44F3121F44071CEF810152902DEF8E5
:10449000108501F47C5141EA074141EA0801CEF858
:1044A0001015C8E7D3E900672846FFF7D9FE002EAC
:1044B000CED0114DD5E90023964203D19F4201D1C0
:1044C000002209E00F480DF10F01FFF75FFD0C4BD3
:1044D0009842BED19DF80F2045F8326005EBC2032B
:1044E00008345F6035F8143043EA422343F48073A4
:1044F00025F81430ACE700BFE40000200400AD0B49
:104500000000AD0B500100202DE9F0430C4685B0B2
:104510008046204611461E46FFF734FE054629B365
:104520002046FFF765FE18B92046FFF76DFE18BB61
:10453000314F05F1080937F8193013F01C0F02D07C
:104540004B78012B18D001238DF80F300023CDE9D3
:1045500000134A1C8B1C20460DF10F0103F01AFDBD
:1045600037F8193043F0030327F81930002E41D0F3
:104570002046FFF73DFE18B9204805B0BDE8F0839E
:1045800096F800C0D8F800301B4F0CF5A27200213D
:1045900043F8221005F1080237F8121021F020012B
:1045A000C904C90C27F8121075781DB3D8F800009B
:1045B000B67800EB8C002D04D0F8103523F4991355
:1045C00023F4F853C0F81035230203F47C5305F4A8
:1045D00040353605D0F810E52B4306F4801641EA45
:1045E0004C31334341F0200143EA0E0327F8121007
:1045F000C0F810350248C0E7E40000200400AD0B0D
:104600000000AD0B014BC3E902127047E40000202B
:1046100010B508461446FFF7F7FD50B10846FFF7FE
:10462000B1FD054B083033F8103004485B0B2370A4
:1046300010BD0348FCE700BFE40000200000AD0B04
:104640000400AD0B70B5184E96F8744005464CBB8F
:104650002146542206F1100004F0B0F92D68706E66
:104660002146884212D10023C5F87C3145F307303A
:10467000D5F87C31FDF7FCFE4FF00043C5F804335C
:104680000A48012386F87430F36670BDCBB29B00F4
:1046900003F580727C2B08BFAC5001F1010108BF0B
:1046A000AB58DEE70248F0E7E40000200000AD0B65
:1046B0000C00AD0B034B93F87400003818BF0120B9
:1046C000704700BFE40000200148FFF783BC00BF33
:1046D0004C0100200148FFF759BC00BF4C010020ED
:1046E00073B5054608460C461646FFF78DFD00B328
:1046F0000846FFF77DFD0146D8B92046FFF76CFD5F
:1047000004B2A40004F58072034628688150296829
:1047100082582144D1F8102542F00102C1F8102539
:104720002EB12968012202FA03F3C1F8043302B062
:1047300070BD2046FFF726FD0F4B083033F81030D0
:10474000C3F38203042B12D0052B12D001A80194CD
:10475000FFF708FD019AD0F81035D34003F00103AC
:10476000991C204602B0BDE8704003F05CBC0321F8
:10477000F7E70221F5E700BFE40000202DE9F04F44
:10478000694BDFF8B081D3F80403D8F86410C0B2E5
:1047900089B040F00040FFF78FFD051E2FDAC246BA
:1047A00000235AF8701F06A8CDE90633FFF738FD3D
:1047B0005E4B01930DF118094FF0000B019A12F8AE
:1047C000013B0192DA0803F007031AF8022022FAEB
:1047D00003F3DA071CD409F10409BBF1000F14D06C
:1047E000D8F864104FF00040FFF766FDD8F870105D
:1047F00006A8FFF715FD0028DAD125F000450124B1
:10480000002D79D109B0BDE8F08F4FF0010BD5E74D
:10481000474B5B440293D9F800100029DBD0029B80
:1048200091FAA1F11C78B1FA81F141EA44142046D1
:10483000FFF7A8FC0830059438F81070C808BB08CA
:1048400019F80020039301F00701012303FA01F195
:1048500022EA010209F8002005A8FFF783FC059A67
:10486000039B02F5E072C7F3820650F822205B0733
:104870003746C2F3014224D520463946D6B2FFF767
:104880008BFC05A80594FFF76DFC059B03F5E07311
:1048900050F82330C3F301439E4207D10021204644
:1048A00003F0C1FB3146204603F0BDFB05A805948B
:1048B000FFF758FC059B012202FA03F3C0F82035EC
:1048C000A9E7022A0CD10321204603F0ACFB06F035
:1048D0000503012BEAD139462046FFF75DFCE5E7E9
:1048E00002212046039203F09EFB032EF3D0039A8D
:1048F000032ADBD1022EEDE795FAA5F3B3FA83F391
:1049000004FA03F29B0003F1804303F5C04325EA58
:104910000205D3F81005D3F81015C0F30520C1F334
:104920000141FFF739FC6BE700600040E59C0000A7
:10493000E59C0000E400002030B500F01F044009B1
:1049400011D0012812D10C4800EB84001B02D0F8D2
:1049500000570A4C43EA82022C4042EA41012143BB
:10496000C0F8001730BD4FF0A040EDE704F5E0744B
:10497000002353F82430FFDE00030050F0F8FCFF62
:104980002DE9F041174E04794FEA441806EB441420
:1049900094F814C0BCF1000F22D10568A260A36195
:1049A000B1B946440023C5F83435C5F83835C5F8E3
:1049B0004435C5F84835737540F20243C5F80433F1
:1049C0000123337508480223C5F80035BDE8F0819E
:1049D000CB7D237703F07EFB0028E2D10348F5E787
:1049E0000348F3E7B40A00200000AD0B0400AD0B50
:1049F0000C00AD0BF8B50479069E2CBB46EA020408
:104A0000B4F5803F20D221B101F06044B4F1005FE1
:104A10001CD123B103F06044B4F1005F16D10E4CF9
:104A2000677D012FFDB213D002D9023D012D11D8AF
:104A3000C4E90313226066600068074901236375B7
:104A400003F028FB0548F8BD0548FCE70548FAE7F0
:104A50000548F8E70548F6E7B40A00200000AD0B6A
:104A60000600AD0B0A00AD0B0500AD0B0100AD0B50
:104A700010B54FF04020D0F82831D3B100231749AA
:104A8000C0F82831D0F828314B7D012BDAB210D193
:104A90000B68CC68C0F84445C0F848354B680C69D1
:104AA000C0F83445C0F83835826202234B7503F0F4
:104AB000F1FA4FF04020D0F8043173B100230749D8
:104AC000C0F80431D0F804314B7D022B05D103230B
:104AD0004B75BDE8104003F0DDBA10BDB40A0020EC
:104AE00008B5124BA8220021184603F067FF0322E5
:104AF00002610F4942610F4A8161C2614FF48062D5
:104B00000262002282624262C26201660A49416612
:104B100010218166094902670346C266426711F89F
:104B2000010D98540132102AF9D108BDD40A002091
:104B3000E79C0000720C0020620C0020009D000029
:104B40002DE9F84FDFF87C80182606FB008E00FB6D
:104B500006664644DEF82440DEF828C07368A445A3
:104B600007468946154603EB040022D8DEF820B03C
:104B7000ABEB040A0AF1FF339A4203D803F0F6FEC6
:104B80002C440FE063449A4219D852462C4403F057
:104B9000EDFEB4EB0B0405D07068224609EB0A0168
:104BA00003F0E4FE182303FB078301205C62BDE8E9
:104BB000F88F0CF1FF3CACEB040C9445DED20020E6
:104BC000F5E700BFD40A0020F8B5144B182700FB06
:104BD00007751D4407FB00330E46DB6A012B1446A4
:104BE0000AD0022B14D023B9284603F0D9FA844204
:104BF00008D900242046F8BD284603F0D1FA8442A3
:104C000028BF044622463146284603F0D2FAF1E78F
:104C10002846BDE8F84003F0E9BA00BFD40A0020F6
:104C2000034B182202FB00339A6A586A801A7047B5
:104C3000D40A002003484FF0FF324FF0FF3300F05A
:104C400071BA00BFCC010020014800F02FBA00BFAC
:104C5000CC0100202DE9F843044600AF0D464FF08B
:104C60002003EFF3118883F31288BFF36F8F0428BA
:104C7000284A98BF284B9668117C94BF53F820307F
:104C8000264BE9468AB06A462548C2E9073140F218
:104C900001339384234BC2E9050442F8103F2248B4
:104CA00000234FF43151FCF703FCCD4645B1EB69CD
:104CB000C3F3080323B11D4A1B48012102F0E1FEA2
:104CC0002EB1304603F0E0FA08B1037803B9184872
:104CD000E9468AB06A46174BD061C2E9053640F210
:104CE00001331384144B42F8103F00230E484FF455
:104CF0001151FCF7DDFB2946CD462046FFF786F82B
:104D000088F31188BFF36F8F3046FDF723FBBD4654
:104D1000BDE8F883800B0020F8920000019D0000A0
:104D2000179D000005000001088E00003F9D000057
:104D30000F9D0000609D000004000001104B70B545
:104D400053F82040013053F82060A64200D870BDCF
:104D5000D4E9003595B153B12846984738B10028B9
:104D6000B8BF4042EB68FF28A8BFFF201870EA6870
:104D7000537843F0010353700834E6E79847FBE7A4
:104D80000C93000008B50A4B012203201A70FFF7AC
:104D9000D5FF01F067F80420FFF7D0FF00F03AF9E3
:104DA000FBF7E0FB034A137B23F00103137308BDF9
:104DB00072100020E807002008B50348034A0021CC
:104DC000121A03F054FA08BDF801002074100020F4
:104DD00070B51C4E1C4D1D49C82303FB006686B0F0
:104DE00000230122CDE904230F22CDE902320193F1
:104DF000182303FB005504464FF4C070144B009574
:104E00004FF4A07200FB0411304600F097F8737B5A
:104E1000104AEE6023F0040373734FF4086304FB3D
:104E2000033313446B600C4B2C74BFF35B8F53E85C
:104E3000001F013143E80012002AF8D1BFF35B8F55
:104E400006B070BD20070020800B0020801C0020D1
:104E500091820000001400207C0B002080B500200F
:104E6000B8B0FFF76BFF2E4B83F308882D4D2E4E05
:104E70006B692E4F43F400736B610024E02385F8C7
:104E80002230EC772C766C76AC7685F820406B6A15
:104E900043F4E0236B6285F82340FDF7C9F9FDF781
:104EA0001BFC4FF0FF33AB62EB62FDF707FDFDF734
:104EB00053FCFCF785F940F20113ADF8243006AB42
:104EC000B360CDE91F44229403F0C5F90120FFF738
:104ED00035FF0220164DFFF731FF00F0D9FC154BCE
:104EE000B5610593012314490094CDE903434FF4C0
:104EF00080623B46CDE90144284600F01FF86A7BFA
:104F0000064622F0040228466A7303F045FA20465A
:104F1000FFF75EFF3A4631462846FDF7B5FB00BF76
:104F2000801C002000ED00E0800B0020854D00007B
:104F3000E8070020C29D0000001E00202DE9F0437C
:104F400085B00732994600F1580322F00706C0E900
:104F50001633109B037306F14005042300274373A7
:104F60000D440F9B83738846C0E906772946876006
:104F7000C7730446FCF7FEFE08F140030730C4E99E
:104F8000193620F007000E9BE06602930D9B0193FB
:104F90002D1A0C9B00932A464B4641462046FDF7AE
:104FA000C9FA054B67659B6803B11B6F23672846E9
:104FB00005B0BDE8F08300BF800B0020F0B587B0DE
:104FC00000250595109D04950F9D03950E9D029556
:104FD000DDE912760D9D01950C9D00950446FFF7C5
:104FE000ADFFB6F1FF3F08BFB7F1FF3F05D056EA6E
:104FF000070305D1204600F0FDFB204607B0F0BDB9
:1050000003493A46334604F1180000F05DFDF4E729
:105010005784000070B5224C224D86B02646AE4221
:1050200004F130040AD300F003FC1D4C1E4EAC42C8
:1050300020D306B0BDE8704000F00EBC54F80C3C24
:10504000059354F8103C049354F8143C039354F81B
:10505000183C029354F81C3C019354F8203C0093F4
:1050600054E90A2354E90C01FFF768FF54F8303C77
:105070005E65D3E7D4E90A23B3F1FF3F08BFB2F17D
:10508000FF3F05D052EA0301206803D100F0B2FBD4
:105090003034CCE73146183000F016FDF8E700BF99
:1050A000C88D0000C88D00005784000038B58368A3
:1050B00004466BB3194A926893422CD1C368012B02
:1050C00003D9013BC360002038BD4FF02003EFF34C
:1050D000118583F31288BFF36F8F0169806803F035
:1050E000E3F8204603F0D2F9A06058B190F90E2001
:1050F00022610022C26703F04FF90948294600F0F7
:1051000067FBE0E7E06085F31188BFF36F8FDAE7B4
:105110006FF01500D8E74FF0FF30D5E7800B002087
:10512000731000202DE9F341044617461E464FF048
:105130002003EFF3118883F31288BFF36F8FC368E6
:10514000334A7BB180689168884219D057EA0603D8
:1051500018D188F31188BFF36F8F6FF00F0002B082
:10516000BDE8F081916891F90E1021610133E3608F
:105170009368A36088F31188BFF36F8F0020EEE778
:105180002169F2E791F90E1090F90E309942A8BF0B
:1051900019466FF07E029142B8BF11468B422EDD58
:1051A00003F082F80546CDE900761A4822464146CA
:1051B00000F0AAFA0028E1D04FF02003EFF31186A7
:1051C00083F31288BFF36F8FA068D0B12368216981
:1051D0009C420AD04BB193F90E309942A8BF1946B0
:1051E0006FF07E039942B8BF194603F05DF840B1F5
:1051F0000848314600F0ECFA6FF00A00AFE70025EE
:10520000D1E7002DF4D186F31188BFF36F8FF3E758
:10521000800B00207310002038B504464FF02003A7
:10522000EFF3118583F31288BFF36F8F03F02EF92C
:1052300048B10022C26703F0AFF829460848BDE82C
:10524000384000F0C5BAD4E902329A4218BF01339F
:10525000A360022104F1100003F031FAEDE700BF72
:105260007310002013B54FF02004EFF3118184F385
:105270001288BFF36F8F846844B1013C846081F36E
:105280001188BFF36F8F002002B010BD52EA0304F3
:1052900006D181F31188BFF36F8F6FF00F00F3E732
:1052A000CDE900230246024800F02EFAECE700BFE9
:1052B00073100020F8B5C3689A0704460F46C3F37D
:1052C00040062CD45B071AD40B680BB983680B60BB
:1052D000E368DD0744BFA3683B603D684CBF02261E
:1052E0000126002D3AD01F4B9B68AB420AD0D5F85F
:1052F000E030D807C3F3800214D46FF01206002305
:105300003B6025E002F0B7FFD5F8E0300028F0D18F
:10531000D907C3F3C002F0D552B15B0708D46FF0D0
:105320000F06ECE7002AFAD1C3F3C003002BF6D135
:1053300000232360D5F8CC3063B9C5E93244284650
:1053400002F0D5FFE36843F00403E3603B68A36029
:105350003046F8BD1C60C5F8CC40F0E76FF015068C
:10536000CDE700BF800B0020F0B589B004460020D7
:10537000C4E932000E9D04F1D000C4E9340004F108
:10538000D800C4E936001DB32879002840F2011086
:1053900008BF0120C4F8E00000204FF0FF364FF0B6
:1053A000FF37CDE90330CDE90100CDE90667094BB0
:1053B00000942046FFF702FE25B1296811B120466E
:1053C00002F05FFF204609B0BDE8F04002F05EBF8A
:1053D0000120DFE7E9030000C3897F2B12D80A4BC5
:1053E0001B6863B1094B90F90E201B689A4209DBD8
:1053F000437BDB0606D1064BC31A18BF012303F01B
:10540000010070470023FAE7B80B0020B40B00201E
:1054100020070020044BC01A044BC0105843044B13
:1054200001221A54704700BFB0080020ABAAAAAAF4
:105430007310002070B50E4B0E4C1E7C06EB46031D
:1054400004EBC3040546204603F0AEF80A4B0022E5
:1054500028469A55FFF7C0FF48B1084B08491A681B
:10546000013A2046D317BDE8704000F02DBB70BD57
:10547000800B0020B008002073100020B80B002023
:105480001554000038B50D4D2B4653F81C4F9C4267
:1054900000D004B9EC68AB6838B95A7BD20604D1A5
:1054A000A26912B9DA897F2A05D89C4202D0204627
:1054B000FFF7C0FF2346AB6138BD00BF800B002063
:1054C00070B590F90D20437B002A014604DA03F001
:1054D0007F03437302F026FF4B7B154A63F07F0383
:1054E00010464B7350F81C3F146A834208BF0023D8
:1054F00023B9C1E90004216011620CE091F90E505A
:1055000093F90E60B5420ED0AE420CDD5868C1E989
:105510000030016059609068431A5842BDE87040FD
:105520005841FFF7AFBF9C42E3D01B68E0E700BFE4
:10553000800B002070B490F90D30427B002B29DBEA
:10554000D30627D183692BBB134962F07F024273D4
:105550000A4652F81C4F944218BF23460C6A23B9DE
:10556000C0E90024206008620CE090F90E5093F925
:105570000E60B5420AD0AE4208DD5A68C0E900327A
:105580001060586070BC0020FFF77CBFA342E7D0DA
:105590001B68E4E770BC7047800B002008B590F9E9
:1055A0000D20437B002A014604DA03F07F03437396
:1055B00002F0B8FE044B9868431A58425841BDE8BF
:1055C0000840FFF75FBF00BF800B002070B5154695
:1055D0001C46064602F0B8FEB4F1FF3F08BFB5F125
:1055E000FF3F08D02A46234606F118000249BDE8CD
:1055F000704000F069BA70BD578400002DE9F04199
:10560000002A437B0E460CBF102108211942044694
:105610000AD10B43DD0903F09F0211D1427308291F
:1056200014D00120FFF72EFF1E4B9B68A34232D1FE
:10563000EFF305837BBB3046BDE8F041FCF7A0BE2D
:1056400003F01F03437302F06DFEE8E7A36813B194
:10565000204602F06FFE04F1180002F0A5FF04F1ED
:1056600058074FF00008A56DBD4200D035B90120A4
:10567000FFF708FF2046FCF7E1FFD5E7284602F0D8
:1056800059FE05F1180002F08FFFC5F87C8028460E
:10569000FFF750FFE7E786F31188BFF36F8FBDE890
:1056A000F08100BF800B002038B54FF02003EFF3EE
:1056B000118583F31288BFF36F8F104B104A9C68DB
:1056C0001068A04206D1FFF7B5FE85F31188BFF33D
:1056D0006F8F38BD00211B7C11600A4AD35C002B00
:1056E000F3D02046FFF778FE0028EED0637BDB0680
:1056F00002D12046FFF7E4FE2046E4E7800B0020BD
:10570000B00B00207310002070B50C480C4D86685B
:105710002E600C461146DDE904234FF02006EFF31E
:10572000118586F31288BFF36F8F8068FFF74EFFF5
:105730002046BDE87040FCF723BE00BF800B002070
:10574000B00B0020F8B504464FF02003EFF31186AC
:1057500083F31288BFF36F8F437BDA0649B219D106
:105760008569BDB903F07F03437302F0DBFD437B22
:10577000164A817363F07F034373134653F81C0F7B
:10578000984218BF0546106A5DB9C4E9003004604C
:10579000146211E0A173002086F31188BFF36F8FAC
:1057A000F8BD95F90E70B9420BD08F4209DD6B68D8
:1057B000C4E900531C606C600120FFF763FE012008
:1057C000EAE7A842E1D02D68DEE700BF800B0020A9
:1057D00049B9EFF3058030B9054B9A699B689A4245
:1057E00001D0FCF7CDBD81F31188BFF36F8F7047F7
:1057F000800B002010B54FF02002EFF3118482F3EC
:105800001288BFF36F8F427B510704D484F3118851
:10581000BFF36F8F10BD22F004024273FFF78AFEC0
:1058200021460248BDE81040FFF7D2BF74100020A7
:105830004FF02003EFF3118183F31288BFF36F8FD2
:10584000044B9A68D37B013BD37381F31188BFF378
:105850006F8F7047800B002010B54FF02003EFF3DF
:10586000118483F31288BFF36F8F084B9A68D37B40
:105870000133D3730020FFF705FE84F31188BFF3D3
:105880006F8FBDE8104002F041BE00BF800B0020CA
:10589000024B03F11C02C3E907227047800B002072
:1058A000F8B54FF02003EFF3118583F31288BFF3AF
:1058B0006F8F19498868437B03F07F03437302F0BD
:1058C00031FD8B685A7B084662F07F025A7350F8AC
:1058D0001C2F0C6A824208BF002222B9C3E90004CF
:1058E00023600B620CE093F90E6092F90E70BE42D9
:1058F0000ED0B7420CDD5168C3E900210B60536044
:105900000120FFF7BFFD2846BDE8F840FCF738BD91
:10591000A242E3D01268E0E7800B002050EA0103C6
:105920002DE9F04105460E4603D1FFF7B9FF0020EF
:105930002CE0831C71F1FF332ADB02F04BFE2C18A4
:105940004FF02003EFF3118883F31288BFF36F8FBA
:10595000114F124BB8681860FFF720FEB868104965
:105960002A463346183000F0AFF8BA68537B43F04C
:10597000100353734046FCF703FD02F02BFE201A80
:1059800063EB0303012873F10003D0DBBDE8F08172
:105990006FF00104241AD3E7800B0020B00B002025
:1059A00057840000B1F1FF3F08BFB0F1FF3F08B5D9
:1059B00006D1084B986802F0FFFC4FF0FF3008BD9D
:1059C000FFF7ACFF4FF47A7380FB0303C00B40EA90
:1059D0004340F4E7800B0020014B9868704700BFFC
:1059E000800B0020D3B5DDE90667089CCDE9006790
:1059F000FFF78AFE1CB1034B9B685B69236002B012
:105A0000D0BD00BF800B002008B50648064A0749F4
:105A1000121A02F02EFCBDE80840054A0549064866
:105A200002F027BC00000020F80100200C9E0000BE
:105A3000000000000C9E000000000020034B1B68CB
:105A40000BB9FEF7D9B90020704700BFBC0B00208E
:105A500010B50E4B1C689C4204D1FFF7EFFF6FF0AE
:105A6000004010BDFFF7EAFF002CF8D0D4E9043263
:105A70001B1A62EBE072B3F1004F72F10001EEDA33
:105A8000002AACBF18460020EBE700BF5C010020F5
:105A900030B570B10B4B5B6898420AD0036843B1D4
:105AA000D3E90421D0E90445121941EB0501C3E90A
:105AB0000421D0E9003213605A600023C0E90033AA
:105AC00030BD00BF5C010020B3F1FF3F08BFB2F161
:105AD000FF3FF8B504461D4616465CD081604FF086
